{
  "contractName": "ytbet",
  "abi": [
    {
      "inputs": [],
      "payable": true,
      "stateMutability": "payable",
      "type": "constructor"
    },
    {
      "constant": true,
      "inputs": [],
      "name": "betAmount",
      "outputs": [
        {
          "internalType": "uint256",
          "name": "",
          "type": "uint256"
        }
      ],
      "payable": false,
      "stateMutability": "view",
      "type": "function"
    },
    {
      "constant": true,
      "inputs": [],
      "name": "isBetOpen",
      "outputs": [
        {
          "internalType": "bool",
          "name": "",
          "type": "bool"
        }
      ],
      "payable": false,
      "stateMutability": "view",
      "type": "function"
    },
    {
      "constant": true,
      "inputs": [],
      "name": "player1",
      "outputs": [
        {
          "internalType": "address",
          "name": "",
          "type": "address"
        }
      ],
      "payable": false,
      "stateMutability": "view",
      "type": "function"
    },
    {
      "constant": true,
      "inputs": [],
      "name": "player2",
      "outputs": [
        {
          "internalType": "address",
          "name": "",
          "type": "address"
        }
      ],
      "payable": false,
      "stateMutability": "view",
      "type": "function"
    },
    {
      "constant": false,
      "inputs": [],
      "name": "bet",
      "outputs": [],
      "payable": true,
      "stateMutability": "payable",
      "type": "function"
    },
    {
      "constant": true,
      "inputs": [],
      "name": "getBetAmount",
      "outputs": [
        {
          "internalType": "uint256",
          "name": "",
          "type": "uint256"
        }
      ],
      "payable": false,
      "stateMutability": "view",
      "type": "function"
    }
  ],
  "bytecode": "0x6080604052600134101561007b576040517f08c379a00000000000000000000000000000000000000000000000000000000081526004018080602001828103825260128152602001807f62657420616d6f756e7420746f6f206c6f77000000000000000000000000000081525060200191505060405180910390fd5b336000806101000a81548173ffffffffffffffffffffffffffffffffffffffff021916908373ffffffffffffffffffffffffffffffffffffffff160217905550346002819055506001600360006101000a81548160ff02191690831515021790555061045b806100ec6000396000f3fe6080604052600436106100555760003560e01c806311610c251461005a57806359a5f12d14610064578063d24257c0146100bb578063d30895e4146100e6578063dd585e771461013d578063fde41e291461016c575b600080fd5b610062610197565b005b34801561007057600080fd5b506100796103b8565b604051808273ffffffffffffffffffffffffffffffffffffffff1673ffffffffffffffffffffffffffffffffffffffff16815260200191505060405180910390f35b3480156100c757600080fd5b506100d06103de565b6040518082815260200191505060405180910390f35b3480156100f257600080fd5b506100fb6103e4565b604051808273ffffffffffffffffffffffffffffffffffffffff1673ffffffffffffffffffffffffffffffffffffffff16815260200191505060405180910390f35b34801561014957600080fd5b50610152610409565b604051808215151515815260200191505060405180910390f35b34801561017857600080fd5b5061018161041c565b6040518082815260200191505060405180910390f35b60011515600360009054906101000a900460ff16151514610220576040517f08c379a000000000000000000000000000000000000000000000000000000000815260040180806020018281038252600d8152602001807f62657474696e67206f766572210000000000000000000000000000000000000081525060200191505060405180910390fd5b6000809054906101000a900473ffffffffffffffffffffffffffffffffffffffff1673ffffffffffffffffffffffffffffffffffffffff163373ffffffffffffffffffffffffffffffffffffffff1614156102e3576040517f08c379a000000000000000000000000000000000000000000000000000000000815260040180806020018281038252600e8152602001807f616c72656164792062657474656400000000000000000000000000000000000081525060200191505060405180910390fd5b600254341461035a576040517f08c379a00000000000000000000000000000000000000000000000000000000081526004018080602001828103825260178152602001807f6e6f7420657175616c20746f2062657420616d6f756e7400000000000000000081525060200191505060405180910390fd5b33600160006101000a81548173ffffffffffffffffffffffffffffffffffffffff021916908373ffffffffffffffffffffffffffffffffffffffff1602179055506000600360006101000a81548160ff021916908315150217905550565b600160009054906101000a900473ffffffffffffffffffffffffffffffffffffffff1681565b60025481565b6000809054906101000a900473ffffffffffffffffffffffffffffffffffffffff1681565b600360009054906101000a900460ff1681565b600060025490509056fea265627a7a72315820a48aa091751516fadf16cbe60e885d936a5d8e0532d792cfa7e7c4485da9a01764736f6c63430005100032",
  "source": "//SPDX-License-Identifier: MIT\r\npragma solidity >0.4.14;\r\n\r\ncontract ytbet{\r\n    address public player1;\r\n    address public player2;\r\n    uint256 public betAmount;\r\n    bool public isBetOpen;\r\n\r\n    constructor() public payable{\r\n        require(msg.value>=1,\"bet amount too low\");\r\n        player1=msg.sender;\r\n        betAmount=msg.value;\r\n        isBetOpen=true;\r\n    }\r\n\r\n    function bet() public payable{\r\n        require(isBetOpen==true, \"betting over!\");\r\n        require(msg.sender!=player1, \"already betted\");\r\n        require(msg.value==betAmount, \"not equal to bet amount\");\r\n        \r\n        player2=msg.sender;\r\n        isBetOpen=false;\r\n\r\n    }\r\n\r\n    function getBetAmount() public view returns(uint256){\r\n        return betAmount;\r\n    }\r\n\r\n    \r\n}",
  "sourcePath": "C:\\Users\\Praveen\\Desktop\\YouTube-Bet\\yt-bet\\contracts\\Bet.sol",
  "compiler": {
    "name": "solc",
    "version": "0.5.16+commit.9c3226ce.Emscripten.clang"
  },
  "schemaVersion": "3.4.7",
  "updatedAt": "2022-05-28T03:49:17.877Z",
  "networkType": "ethereum",
  "devdoc": {
    "methods": {}
  },
  "userdoc": {
    "methods": {}
  }
}